:020000040801F1
:10000000000003200D1001085D100108D502010851
:100010005D1001085D1001085D100108000000007E
:100020000000000000000000000000005D1001085A
:100030005D100108000000001F020108F111010815
:100040005D1001085D1001085D1001085D100108D8
:100050005D1001085D1001085D1001085D100108C8
:100060005D1001085D1001085D1001085D100108B8
:100070005D1001085D1001085D1001085D100108A8
:100080005D1001085D1001085D1001085D10010898
:100090005D1001085D1001085D1001085D10010888
:1000A0005D1001085D1001085D1001085D10010878
:1000B0005D1001085D1001085D1001085D10010868
:1000C0005D1001085D1001085D1001085D10010858
:1000D0005D1001085D1001085D1001085D10010848
:1000E0005D100108DD1F01085D1001085D100108A9
:1000F0005D1001085D1001085D1001085D10010828
:100100005D1001085D1001085D1001085D10010817
:100110005D1001085D1001085D1001085D10010807
:100120005D1001085D1001085D1001085D100108F7
:100130005D1001085D1001085D1001085D100108E7
:100140005D1001085D1001085D1001085D100108D7
:100150005D1001085D1001085D1001085D100108C7
:100160005D1001085D1001085D1001085D100108B7
:100170005D1001085D1001085D100108000000001D
:100180005D1001085D1001085D1001085D10010897
:100190005D1001085D1001085D1001085D10010887
:0C01A0005D1001085D1001085D100108F1
:1001B00010B5054C237833B9044B13B10448AFF3A1
:1001C00000800123237010BD1C02002000000000ED
:1001D0001077010808B5034B1BB103490348AFF37F
:1001E000008008BD000000002002002010770108F8
:1001F000EFF3108072B6704780F310887047444A5E
:100200001368012B04D04FF001031360414A1060C2
:10021000414A116041484FF0805101607047EFF34F
:10022000108272B63A48016851B34FF00001016084
:100230003848016891B1EFF309811EF0100F08BF33
:1002400021ED108B21E9F00F4FF000041EF0100F8C
:1002500008BF012441F8044D006801602E49096877
:10026000096808C9B1E8F00F002B18BFB1EC108B7A
:1002700081F309884EF0100E002B18BF2EF0100EDF
:1002800082F310884EF0040E704723490860EFF3A4
:10029000148222F0040282F314881E494FF00000F9
:1002A00008601B494FF0010008601D481D49D0F847
:1002B000002041EA0201016018484FF080510160BE
:1002C00019480068006800BF80F3088861B662B60C
:1002D000704700BFEFF308801EF0040F01D0EFF36A
:1002E000098020E9F00F40F804ED40F804ED1EF01D
:1002F000040F02D080F3098801E080F3088800B57C
:1003000003F0F2FC5DF804EB4EF0040E70470000C1
:10031000844800207C4800208048002004ED00E054
:1003200020ED00E00000FFFF08ED00E0034613F8B9
:10033000012B002AFBD1181A013870470000000079
:1003400001F0FF01102A2BDB10F0070F08D010F886
:10035000013B013A8B422DD010F0070F42B3F6D18A
:10036000F0B441EA012141EA014122F007047FF0A3
:1003700000070023F0E80256083C85EA010586EAFA
:10038000010685FA47F5A3FA87F586FA47F6A5FA36
:1003900087F68EB9EED1F0BC01F0FF0102F0070242
:1003A00032B110F8013B013A83EA010313B1F8D1ED
:1003B0000020704701387047002D06BF35460338CE
:1003C000073815F0010F07D1013015F4807F02BF07
:1003D000013015F4C03F0130F0BC0138704700BF58
:1003E00081F0004102E000BF83F0004330B54FEAE6
:1003F00041044FEA430594EA050F08BF90EA020F53
:100400001FBF54EA000C55EA020C7FEA645C7FEAE5
:10041000655C00F0E2804FEA5454D4EB5555B8BF08
:100420006D420CDD2C4480EA020281EA030382EA79
:10043000000083EA010180EA020281EA0303362D0B
:1004400088BF30BD11F0004F4FEA01314FF4801CDE
:100450004CEA113102D0404261EB410113F0004FF0
:100460004FEA03334CEA133302D0524263EB4303A7
:1004700094EA050F00F0A780A4F10104D5F1200E45
:100480000DDB02FA0EFC22FA05F2801841F10001A0
:1004900003FA0EF2801843FA05F359410EE0A5F174
:1004A00020050EF1200E012A03FA0EFC28BF4CF0A5
:1004B000020C43FA05F3C01851EBE37101F000455B
:1004C00007D54FF0000EDCF1000C7EEB00006EEB68
:1004D0000101B1F5801F1BD3B1F5001F0CD34908F2
:1004E0005FEA30004FEA3C0C04F101044FEA445249
:1004F00012F5800F80F09A80BCF1004F08BF5FEAD0
:10050000500C50F1000041EB045141EA050130BDAF
:100510005FEA4C0C404141EB0101013C28BFB1F5C1
:10052000801FE9D291F0000F04BF01460020B1FA0C
:1005300081F308BF2033A3F10B03B3F120020CDADF
:100540000C3208DD02F1140CC2F10C0201FA0CF0BD
:1005500021FA02F10CE002F11402D8BFC2F1200C22
:1005600001FA02F120FA0CFCDCBF41EA0C019040D8
:10057000E41AA2BF01EB0451294330BD6FEA040421
:100580001F3C1CDA0C340EDC04F11404C4F120020C
:1005900020FA04F001FA02F340EA030021FA04F31E
:1005A00045EA030130BDC4F10C04C4F1200220FA75
:1005B00002F001FA04F340EA0300294630BD21FAB3
:1005C00004F0294630BD94F0000F83F4801306BF79
:1005D00081F480110134013D4EE77FEA645C18BF6D
:1005E0007FEA655C29D094EA050F08BF90EA020F04
:1005F00005D054EA000C04BF1946104630BD91EAFC
:10060000030F1EBF0021002030BD5FEA545C05D1FE
:100610004000494128BF41F0004130BD14F580043D
:100620003CBF01F5801130BD01F0004545F0FE41B1
:1006300041F470014FF0000030BD7FEA645C1ABFE6
:10064000194610467FEA655C1CBF0B46024650EA1D
:10065000013406BF52EA033591EA030F41F4002149
:1006600030BD00BF90F0000F04BF0021704730B5CF
:100670004FF4806404F132044FF000054FF00001A4
:1006800050E700BF90F0000F04BF0021704730B565
:100690004FF4806404F1320410F0004548BF40423A
:1006A0004FF000013EE700BF42004FEAE2014FEA8F
:1006B00031014FEA02701FBF12F07F4393F07F4F6A
:1006C00081F06051704732F07F4208BF704793F06D
:1006D0007F4F04BF41F40021704730B54FF4607480
:1006E00001F0004521F000411CE700BF50EA010283
:1006F00008BF704730B54FF000050AE050EA01022C
:1007000008BF704730B511F0004502D5404261EB9B
:1007100041014FF4806404F132045FEA915C3FF4DC
:10072000D8AE4FF003025FEADC0C18BF03325FEA79
:10073000DC0C18BF033202EBDC02C2F1200300FA2A
:1007400003FC20FA02F001FA03FE40EA0E0021FA4F
:1007500002F11444BDE600BF70B54FF0FF0C4CF43D
:10076000E06C1CEA11541DBF1CEA135594EA0C0FEF
:1007700095EA0C0F00F0DEF82C4481EA030621EA2A
:100780004C5123EA4C5350EA013518BF52EA033565
:1007900041F4801143F4801338D0A0FB02CE4FF017
:1007A0000005E1FB02E506F00042E0FB03E54FF047
:1007B0000006E1FB03569CF0000F18BF4EF0010E3F
:1007C000A4F1FF04B6F5007F64F5407404D25FEA3B
:1007D0004E0E6D4146EB060642EAC62141EA5551EE
:1007E0004FEAC52040EA5E504FEACE2EB4F1FD0C30
:1007F00088BFBCF5E06F1ED8BEF1004F08BF5FEAAE
:10080000500E50F1000041EB045170BD06F000465F
:1008100046EA010140EA020081EA0301B4EB5C040C
:10082000C2BFD4EB0C0541EA045170BD41F4801104
:100830004FF0000E013C00F3AB8014F1360FDEBF29
:10084000002001F0004170BDC4F10004203C35DA05
:100850000C341BDC04F11404C4F1200500FA05F388
:1008600020FA04F001FA05F240EA020001F0004229
:1008700021F0004110EBD37021FA04F642EB06019F
:100880005EEA430E08BF20EAD37070BDC4F10C04C9
:10089000C4F1200500FA04F320FA05F001FA04F28D
:1008A00040EA020001F0004110EBD37041F1000179
:1008B0005EEA430E08BF20EAD37070BDC4F1200584
:1008C00000FA05F24EEA020E20FA04F301FA05F2EC
:1008D00043EA020321FA04F001F0004121FA04F294
:1008E00020EA020000EBD3705EEA430E08BF20EA64
:1008F000D37070BD94F0000F0FD101F0004640009E
:1009000041EB010111F4801F08BF013CF7D041EA1F
:10091000060195F0000F18BF704703F00046520023
:1009200043EB030313F4801F08BF013DF7D043EAF4
:100930000603704794EA0C0F0CEA135518BF95EAAA
:100940000C0F0CD050EA410618BF52EA4306D1D131
:1009500081EA030101F000414FF0000070BD50EA50
:10096000410606BF1046194652EA430619D094EADA
:100970000C0F02D150EA013613D195EA0C0F05D1C4
:1009800052EA03361CBF104619460AD181EA030118
:1009900001F0004141F0FE4141F470014FF00000D0
:1009A00070BD41F0FE4141F4780170BD70B54FF06B
:1009B000FF0C4CF4E06C1CEA11541DBF1CEA1355EB
:1009C00094EA0C0F95EA0C0F00F0A7F8A4EB0504CD
:1009D00081EA030E52EA03354FEA013100F08880C4
:1009E0004FEA03334FF0805545EA131343EA12638D
:1009F0004FEA022245EA111545EA10654FEA002642
:100A00000EF000419D4208BF964244F1FD0404F5FA
:100A1000407402D25B084FEA3202B61A65EB030556
:100A20005B084FEA32024FF480104FF4002CB6EB13
:100A3000020E75EB030E22BFB61A754640EA0C0093
:100A40005B084FEA3202B6EB020E75EB030E22BFD3
:100A5000B61A754640EA5C005B084FEA3202B6EB14
:100A6000020E75EB030E22BFB61A754640EA9C00D3
:100A70005B084FEA3202B6EB020E75EB030E22BFA3
:100A8000B61A754640EADC0055EA060E18D04FEA61
:100A9000051545EA16754FEA06164FEAC30343EA01
:100AA00052734FEAC2025FEA1C1CC0D111F4801FCE
:100AB0000BD141EA00014FF000004FF0004CB6E7C7
:100AC00011F4801F04BF01430020B4F1FD0C88BF66
:100AD000BCF5E06F3FF6AFAEB5EB030C04BFB6EB71
:100AE000020C5FEA500C50F1000041EB045170BD64
:100AF0000EF0004E4EEA113114EB5C04C2BFD4EB91
:100B00000C0541EA045170BD41F480114FF0000E14
:100B1000013C90E645EA060E8DE60CEA135594EA90
:100B20000C0F08BF95EA0C0F3FF43BAF94EA0C0F93
:100B30000AD150EA01347FF434AF95EA0C0F7FF408
:100B400025AF104619462CE795EA0C0F06D152EA5C
:100B500003353FF4FDAE1046194622E750EA410640
:100B600018BF52EA43067FF4C5AE50EA41047FF451
:100B70000DAF52EA43057FF4EBAE12E74FF0FF3CB6
:100B800006E000BF4FF0010C02E000BF4FF0010C87
:100B90004DF804CD4FEA410C7FEA6C5C4FEA430C00
:100BA00018BF7FEA6C5C1BD001B050EA410C0CBF4F
:100BB00052EA430C91EA030F02BF90EA020F0020B1
:100BC000704710F1000F91EA030F58BF994208BF18
:100BD00090422CBFD8176FEAE37040F001007047D5
:100BE0004FEA410C7FEA6C5C02D150EA013C07D12C
:100BF0004FEA430C7FEA6C5CD6D152EA033CD3D077
:100C00005DF8040B704700BF8446104662468C4670
:100C10001946634600E000BF01B5FFF7B7FF0028A3
:100C200048BF10F1000F01BD4DF808EDFFF7F4FFCC
:100C30000CBF012000205DF808FB00BF4DF808ED57
:100C4000FFF7EAFF34BF012000205DF808FB00BF7A
:100C50004DF808EDFFF7E0FF94BF012000205DF89C
:100C600008FB00BF4DF808EDFFF7CEFF94BF012051
:100C700000205DF808FB00BF4DF808EDFFF7C4FF4A
:100C800034BF012000205DF808FB00BF4FEA410C93
:100C90007FEA6C5C02D150EA013C0AD14FEA430C76
:100CA0007FEA6C5C02D152EA033C02D14FF00000B3
:100CB00070474FF0010070474FEA410212F50012F1
:100CC00015D211D56FF47873B3EB625212D94FEA93
:100CD000C12343F0004343EA505311F0004F23FA7D
:100CE00002F018BF404270474FF00000704750EAD2
:100CF000013005D111F0004008BF6FF0004070478F
:100D00004FF00000704700BF53B94AB9002908BF2F
:100D100000281CBF4FF0FF314FF0FF3000F074B9D6
:100D2000ADF1080C6DE904CE00F006F8DDF804E042
:100D3000DDE9022304B070472DE9F047089D044621
:100D40008E46002B4DD18A42944669D9B2FA82F27E
:100D500052B101FA02F3C2F1200120FA01F10CFABA
:100D600002FC41EA030E94404FEA1C48210CBEFBF2
:100D7000F8F61FFA8CF708FB16E341EA034306FB7B
:100D800007F199420AD91CEB030306F1FF3080F00A
:100D90001F81994240F21C81023E63445B1AA4B257
:100DA000B3FBF8F008FB103344EA034400FB07F7F9
:100DB000A7420AD91CEB040400F1FF3380F00A813A
:100DC000A74240F207816444023840EA0640E41B2F
:100DD00000261DB1D4400023C5E900433146BDE8DB
:100DE000F0878B4209D9002D00F0EF800026C5E97D
:100DF000000130463146BDE8F087B3FA83F6002E95
:100E00004AD18B4202D3824200F2F980841A61EB0C
:100E1000030301209E46002DE0D0C5E9004EDDE72A
:100E200002B9FFDEB2FA82F2002A40F09280A1EB12
:100E30000C014FEA1C471FFA8CFE0126200CB1FB67
:100E4000F7F307FB131140EA01410EFB03F0884260
:100E500008D91CEB010103F1FF3802D2884200F2ED
:100E6000CB804346091AA4B2B1FBF7F007FB10117F
:100E700044EA01440EFB00FEA64508D91CEB04041D
:100E800000F1FF3102D2A64500F2BB800846A4EB78
:100E90000E0440EA03409CE7C6F12007B34022FA63
:100EA00007FC4CEA030C20FA07F401FA06F31C4392
:100EB000F9404FEA1C4900FA06F3B1FBF9F8200C9F
:100EC0001FFA8CFE09FB181140EA014108FB0EF0E5
:100ED000884202FA06F20BD91CEB010108F1FF3A35
:100EE00080F08880884240F28580A8F10208614441
:100EF000091AA4B2B1FBF9F009FB101144EA01414F
:100F000000FB0EFE8E4508D91CEB010100F1FF34F9
:100F10006CD28E456AD90238614440EA0840A0FB91
:100F20000294A1EB0E01A142C846A64656D353D067
:100F30005DB1B3EB080261EB0E0101FA07F722FA8B
:100F400006F3F1401F43C5E9007100263146BDE8B4
:100F5000F087C2F12003D8400CFA02FC21FA03F317
:100F6000914001434FEA1C471FFA8CFEB3FBF7F098
:100F700007FB10360B0C43EA064300FB0EF69E42BD
:100F800004FA02F408D91CEB030300F1FF382FD256
:100F90009E422DD9023863449B1B89B2B3FBF7F6FE
:100FA00007FB163341EA034106FB0EF38B4208D9D7
:100FB0001CEB010106F1FF3816D28B4214D9023E18
:100FC0006144C91A46EA004638E72E46284605E736
:100FD0000646E3E61846F8E64B45A9D2B9EB020807
:100FE00064EB0C0E0138A3E74646EAE7204694E797
:100FF0004046D1E7D0467BE7023B614432E73046CA
:1010000009E76444023842E7704700BFDFF834D094
:101010000D480E490E4A002302E0D458C450043350
:10102000C4188C42F9D30B4A0B4C002301E0136027
:101030000432A242FBD301F041F903F02BFD01F091
:10104000F4FA704700000320000000201C0200207A
:10105000248801081C02002038490020FEE7000017
:1010600010B586B0EC46104C0FCCACE80F0094E8FD
:1010700003004CF8040BACF800106846FFF756F973
:1010800081B2684601F030FA0022084B084804F0AB
:10109000A5F900F035F84FF4FA7002F00FFB4FF4A9
:1010A000FA7002F00BFBF6E70C7801080000044030
:1010B0000078010810B5002408E02146064804F035
:1010C0008DF94FF47A7002F0F9FA0134092CF4D951
:1010D000024804F009FA10BD2478010838780108A4
:1010E00008B5012001F07EF94FF4FA7002F0E6FA3B
:1010F000002001F077F94FF4FA7002F0DFFAF0E720
:1011000010B584B005230193192300934FF40073A5
:1011100000221249124802F033FA124B186008B14B
:1011200002F0F5FA0F4B1B68A3B10F4C0523039394
:10113000182302934FF4007301930C4B0093002388
:101140000B4A0C49204602F0F9F9204602F0DFFA7A
:1011500004B010BD084804F0C7F9E6E7E110010843
:1011600048780108380200203C020020B402002028
:10117000B5100108607801084C7801080138B0F119
:10118000807F0BD24FF0E0235861054AFF2182F89F
:1011900023100020986107221A61704701207047D0
:1011A00000ED00E000487047B4040020004870479C
:1011B000B444002010B500F06FF801F08DF80A4B30
:1011C00018680A4BA3FB00308009FFF7D7FF01F036
:1011D000D9F9FFF7E7FF0446FFF7E8FF014620468D
:1011E00001F074FE10BD00BF08000020D34D621056
:1011F00008B501F003FB00F069F801F087F901F090
:101200000BFB08BDF0B583B005460D238DF8073004
:1012100000240F4B83F83C4001F029FC074606E010
:1012200001231A4631460A4800F0DCFF0134BC4273
:101230000BD22E192B5D0A2BF2D101231A460DF188
:101240000701034800F0CEFFEAE703B0F0BD00BF9E
:10125000D84400200F4B1B681A6812F0200F03D0EF
:101260005868C0B2C0B2704700B583B01A6812F0B7
:10127000080F06D0002201921A6801925B68019360
:10128000019B0A2002F01AFA4FF0FF30C0B203B0FF
:101290005DF804FBD844002008B50B4B1A6842F4F3
:1012A00000721A601A6842F480621A601A6842F486
:1012B00080721A60032000F01BF8002000F0A6FDE9
:1012C00000F072F9002008BD003C0240034A11689A
:1012D000034B1B780B441360704700BFB4440020DD
:1012E00000000020014B1868704700BFB444002084
:1012F000074AD36823F4E0631B041B0C000200F4CC
:10130000E060034343F0BF6343F40033D3607047AE
:1013100000ED00E000B5194BDB68C3F30223C3F115
:10132000070CBCF1040F28BF4FF0040C03F1040EAE
:10133000BEF1060F18D9033B4FF0FF3E0EFA0CFC2E
:1013400021EA0C0199400EFA03F322EA0303194340
:1013500000280BDB0901C9B200F1604000F56140D3
:1013600080F800135DF804FB0023E5E700F00F00B0
:101370000901C9B2024B1954F4E700BF00ED00E0C7
:1013800014ED00E0002807DB00F01F0240090123F4
:101390009340024A42F82030704700BF00E100E06D
:1013A00000230F2B00F2F18070B582B061E08568F8
:1013B0005E000324B44025EA0405CC68B4402C4305
:1013C0008460456825EA02054C68C4F300129A401F
:1013D0002A4342605BE0DC08083450F8246003F0E4
:1013E000070295000F22AA4026EA020E0A69AA40C7
:1013F00042EA0E0240F824205DE0092200E00022CB
:1014000002FA0EF22A430234604D45F82420604A65
:1014100014686FEA0C0224EA0C054E6816F4803F4B
:1014200001D04CEA04055A4C2560646802EA0405C0
:101430004E6816F4003F01D04CEA0405544C656038
:10144000A46802EA04054E6816F4801F01D04CEA35
:1014500004054F4CA560E46822404D6815F4001F58
:1014600001D04CEA04024A4CE26001330F2B00F237
:101470008A8001229A400C6804EA020C32EA0404D1
:10148000F3D14C6804F00304013C012C8FD94A6865
:1014900002F00302032A09D0C4685D000322AA40B7
:1014A00024EA02048A68AA402243C2604A6802F021
:1014B0000302022A8FD004684FEA430E032202FA85
:1014C0000EF224EA02044A6802F0030202FA0EF263
:1014D000224302604A6812F4403FC6D000220192C3
:1014E0002C4A546C44F480445464526C02F480429C
:1014F0000192019A9C08A51C244A52F8255003F039
:1015000003024FEA820E0F2202FA0EF225EA0205CA
:10151000214A90423FF473AF02F58062904222D09C
:1015200002F58062904220D002F5806290421ED087
:1015300002F5806290421CD002F5806290421AD07F
:1015400002F58062904218D002F58062904216D077
:1015500002F58062904214D002F5806290423FF41E
:101560004CAF0A224CE701224AE7022248E7032255
:1015700046E7042244E7052242E7062240E7072225
:101580003EE708223CE702B070BD704700380140DA
:10159000003C014000380240000002400AB1816175
:1015A000704709048161704770470000002800F00F
:1015B000E08170B582B00446036813F0010F3BD0A0
:1015C0009F4B9B6803F00C03042B2CD09C4B9B6817
:1015D00003F00C03082B21D06368B3F5803F4FD094
:1015E000B3F5A02F52D0964B1A6822F480321A60BD
:1015F0001A6822F480221A606368002B50D0FFF72B
:1016000071FE05468E4B1B6813F4003F14D1FFF7A3
:1016100069FE401B6428F5D90320B1E1884B5B6863
:1016200013F4800FD8D0864B1B6813F4003F03D00F
:101630006368002B00F09F81236813F0020F54D0E1
:101640007F4B9B6813F00C0F3ED07D4B9B6803F0E3
:101650000C03082B33D0E368002B68D0794B0122B0
:101660001A60FFF73FFE0546754B1B6813F0020F2B
:1016700054D1FFF737FE401B0228F5D903207FE144
:101680006F4A136843F480331360B5E76C4B1A68F4
:1016900042F480221A601A6842F480321A60ABE782
:1016A000FFF720FE0546664B1B6813F4003FC3D0CE
:1016B000FFF718FE401B6428F5D9032060E1604B5A
:1016C0005B6813F4800FC6D15D4B1B6813F0020FEB
:1016D00003D0E368012B40F05081594A136823F08E
:1016E000F803216943EAC1031360236813F0080F6C
:1016F00042D063696BB3534B0122C3F8802EFFF7CE
:10170000F1FD05464E4B5B6F13F0020F34D1FFF72E
:10171000E9FD401B0228F5D9032031E1484A13684E
:1017200023F0F803216943EAC1031360DDE7454B69
:1017300000221A60FFF7D6FD0546414B1B6813F0E7
:10174000020FD2D0FFF7CEFD401B0228F5D90320AF
:1017500016E13C4B0022C3F8802EFFF7C3FD05467F
:10176000374B5B6F13F0020F06D0FFF7BBFD401B3A
:101770000228F5D9032003E1236813F0040F77D082
:101780002F4B1B6C13F0805F33D1002301932C4B44
:101790001A6C42F080521A641B6C03F08053019360
:1017A000019B0125284B1B6813F4807F23D0A3687D
:1017B000012B34D0052B38D0214B1A6F22F00102B7
:1017C0001A671A6F22F004021A67A368002B3DD033
:1017D000FFF788FD06461A4B1B6F13F0020F46D128
:1017E000FFF780FD801B41F288339842F3D9032034
:1017F000C6E00025D6E7144A136843F480731360EB
:10180000FFF770FD0646104B1B6813F4807FCED1A6
:10181000FFF768FD801B0228F5D90320B0E0084AD5
:10182000136F43F001031367CFE7054B1A6F42F0C4
:1018300004021A671A6F42F001021A67C5E700BF77
:10184000003802400000474200700040FFF74AFDA8
:101850000646524B1B6F13F0020F08D0FFF742FDF4
:10186000801B41F288339842F3D9032088E0EDB918
:10187000A369002B00F08380484A926802F00C02B2
:10188000082A51D0022B17D0454B00221A66FFF7C9
:1018900029FD0446414B1B6813F0007F42D0FFF73F
:1018A00021FD001B0228F5D9032069E03B4A136C97
:1018B00023F080531364DBE7394B00221A66FFF7ED
:1018C00011FD0546354B1B6813F0007F06D0FFF76E
:1018D00009FD401B0228F5D9032051E0E369226A83
:1018E0001343626A43EA8213A26A5208013A43EA46
:1018F0000243E26A43EA0263284A5360284B01220A
:101900001A66FFF7EFFC0446244B1B6813F0007FB8
:1019100006D1FFF7E7FC001B0228F5D903202FE0D2
:1019200000202DE000202BE0012B2BD01B4B5B680F
:1019300003F48001E269914226D103F03F02216A5B
:101940008A4223D1616A47F6C0721A40B2EB811F06
:101950001ED103F44031A26A5208013AB1EB024FA2
:1019600018D103F07063E26AB3EB026F14D1002068
:1019700006E001207047012002E0012000E0002085
:1019800002B070BD0120FBE70120F9E70120F7E775
:101990000120F5E70120F3E70120F1E700380240DC
:1019A00000004742014B1868704700BF0800002044
:1019B00008B5FFF7F7FF044B9B68C3F38223034A84
:1019C000D35CD84008BD00BF0038024078780108D9
:1019D00008B5FFF7E7FF044B9B68C3F34233034AA4
:1019E000D35CD84008BD00BF0038024078780108B9
:1019F00030B583B00446036813F0430F15D1236854
:101A000013F00C0F6AD1236813F0200F40F0BF8051
:101A1000236813F0100F00F0238194F82C20914BD1
:101A2000C3F8E021002003B030BD8F4B00229A663E
:101A3000FFF758FC05468D4B1B6813F0006F06D06E
:101A4000FFF750FC431B022BF5D90320EBE723687B
:101A500013F0010F07D06268A3681B0743EA8213E3
:101A6000824AC2F88430236813F0020F15D07F4AEF
:101A7000D2F884106068E3681B0643EA801301F023
:101A8000E0410B43C2F88430D2F88C3023F01F03BE
:101A9000E16901390B43C2F88C30236813F0400F21
:101AA0000AD06268E3681B0643EA8213A26843EA2D
:101AB00002736E4AC2F884306B4B01229A66FFF7BC
:101AC00011FC0546694B1B6813F0006F97D1FFF7B7
:101AD00009FC401B0228F5D90320A4E7624B002231
:101AE0001A67FFF7FFFB0546604B1B6813F0005FAA
:101AF00006D0FFF7F7FB431B022BF5D9032092E733
:101B0000236813F0040F16D0584AD2F888102069C1
:101B100063691B0643EA801301F0E0410B43C2F8FE
:101B20008830D2F88C3023F4F853216A013943EA23
:101B30000123C2F88C30236813F0080F14D04B4AED
:101B4000D2F88830216903F0706343EA8113A169F8
:101B500043EA0173C2F88830D2F88C3023F4403362
:101B6000616A0B43C2F88C303F4B01221A67FFF7C2
:101B7000B9FB05463D4B1B6813F0005F7FF443AF94
:101B8000FFF7B0FB401B0228F4D903204BE70023EA
:101B90000193364B1A6C42F080521A641B6C03F0AE
:101BA00080530193019B324A136843F4807313609E
:101BB000FFF798FB05462E4B1B6813F4807F06D178
:101BC000FFF790FB401B0228F5D903202BE7274B9A
:101BD0001B6F13F4407314D0A26A02F440729A424D
:101BE0000FD0224B1A6F22F440721F490120C1F816
:101BF000400E0020C1F8400E1A671B6F13F0010F52
:101C000012D1A36A03F44072B2F5407F1DD0174A87
:101C1000936823F4F813936014490B6FA26AC2F31C
:101C20000B0213430B67F3E6FFF75CFB05460F4B14
:101C30001B6F13F0020FE4D1FFF754FB401B41F27E
:101C400088339842F3D90320EDE608498A6822F4E4
:101C5000F81223F0704323F4407313438B60DBE7E7
:101C60000020E0E6001047420000474200380240F2
:101C7000007000407047000010B5044603689A6881
:101C800012F4805F03D0DB6813F4807F0FD12368E8
:101C90009A6812F4005F03D0DB6813F4007F0FD161
:101CA0000C4B4FF400325A610123637710BD00F0F2
:101CB00061F92268D368DBB263F4C073D360E6E7EE
:101CC000204600F0A2F82268D368DBB263F42073E8
:101CD000D360E5E7003C014038B504460268D368AC
:101CE00023F0A003D360FFF7FDFA05462368DB6805
:101CF00013F0200F07D1FFF7F5FA401BB0F57A7FFC
:101D0000F4D9032000E0002038BD38B50368DA6854
:101D100012F0400F01D0002038BD04464FF0FF32D2
:101D2000DA60FFF7DFFA05462368DB6813F0400F3F
:101D300007D1FFF7D7FA431BB3F57A7FF4D9032015
:101D4000EAE70020E8E738B500285CD00446437F86
:101D5000002B41D0022363772368CA225A6223688A
:101D600053225A622046FFF7D0FF0546002837D19C
:101D70002268936823F4E00323F040039360216812
:101D80008A686368206903436069034313438B6077
:101D90002368E2681A6122681369A16843EA014373
:101DA00013612268D36823F08003D36023689B68A3
:101DB00013F0200F1BD02268136C23F480231364CC
:101DC0002268136CA1690B4313642368FF225A62D3
:101DD00001236377284638BD0377FFF74BFFB9E748
:101DE0002368FF225A62042363770125F2E7204625
:101DF000FFF772FF0028DED02368FF225A62042317
:101E000063770125E6E70125E4E7704730B59BB02D
:101E100005460023199301220D9213934FF480334A
:101E20000E934C4B0B930DA8FFF7C0FB044620B359
:101E300054B3002C3CD1484B1868CA234362532347
:101E40004362836823F480738360C368DBB263F406
:101E5000C073C36000231993C36813F0010F27D127
:101E6000199A531C19933D4B1B683D49A1FB031361
:101E7000B2EB531FF0D10124EEE72023019301A818
:101E8000FFF7B6FD0446D3E7364B0122C3F83C2EDC
:101E90003148354B0360002343606322826009228E
:101EA000C260036143618361FFF74DFF0446C0E7F1
:101EB000002C2FD128490B680122DA619A6842F47C
:101EC00080729A609A6842F480529A60274B1A682E
:101ED00042F400321A609A6842F400329A6008684C
:101EE000C36813F0400F15D14FF0FF33C3600023D8
:101EF0001993C36813F0400F0CD1199A531C19930E
:101F0000164B1B681649A1FB0313B2EB531FF0D10C
:101F10000124EEE714B120461BB030BD0E4B1A6809
:101F20000021516011601B68DA6822F08002DA60DB
:101F3000FF225A622920FFF725FA0F2D01D901242B
:101F4000E9E7002229462920FFF7E4F9084B1D6044
:101F5000E1E700BF00031900B8440020080000209A
:101F6000ABAAAAAA0000474200280040003C01405A
:101F70000400002010B582B0044600230193FFF74F
:101F8000A5F92368CA225A62236853225A62236839
:101F90004FF0FF32DA602168CB6813F0400F0AD1AE
:101FA000019A531C01930B4B1B680B48A0FB0303C6
:101FB000B2EB531FEFD100234B60226813602268FD
:101FC000D36823F08003D3602368FF225A6202B0F3
:101FD00010BD00BF08000020ABAAAAAA08B502489D
:101FE000FFF74AFE08BD00BFB844002038B50446DC
:101FF0000268136923F44053C1680B43136183687B
:102000000269134342691343C2691A430168CB68EA
:1020100023F4164323F00C031343CB600268536987
:1020200023F4407381690B4353610368314A93423F
:1020300006D002F58062934202D0FFF7B9FC01E0BE
:10204000FFF7C6FCE369B3F5004F29D00021031860
:1020500049411B1841F10001C90041EA5371DB00FD
:10206000181863684FEA83024FEA937341F1000145
:10207000FEF74AFE204DA5FB00325109642303FB05
:1020800011031B013233A5FB03235B0903F0F002AC
:1020900002EB011203F00F03216813448B6038BD7B
:1020A0000023021843EB0301121841F10001C9009B
:1020B00041EA5271D200101841F100016268921891
:1020C0005B41FEF721FE0C4DA5FB00325109642354
:1020D00003FB1103DB003233A5FB03235B095A002A
:1020E00002F4F87202EB011203F0070321681344B3
:1020F0008B60D4E7001001401F85EB512DE9F843B8
:1021000005460F4616469946DDF820802C6824685F
:1021100037EA04030CBF4FF0010C4FF0000CB4453C
:102120002DD1B8F1FF3FF1D0B8F1000F05D0FFF786
:10213000D9F8A0EB09004045E8D92A6802F10C0360
:1021400053E8003F23F4D0730C3242E800310029F9
:10215000F3D12A6802F1140353E8003F23F001038E
:10216000143242E800310029F3D1202385F83D30B4
:1021700085F83E30002385F83C30032000E0002045
:10218000BDE8F883704758B310B5044690F83D3069
:102190000BB3242384F83D302268D36823F4005322
:1021A000D3602046FFF722FF2268136923F490438F
:1021B00013612268536923F02A0353612268D368AC
:1021C00043F40053D36000202064202384F83D3082
:1021D00084F83E3010BD80F83C30FFF7D3FFD8E7DD
:1021E000012070472DE9F04182B01E4690F83D3045
:1021F000DBB2202B54D104460D469046002953D023
:10220000002A53D090F83C30012B51D0012380F8A4
:102210003C3000230364212380F83D30FFF762F84F
:102220000746A4F82480A4F82680A368B3F5805F4D
:1022300005D04FF00008002384F83C3012E02369F9
:1022400013B14FF00008F6E7A8460025F3E738F889
:10225000023B2268C3F308035360E28C92B2013A56
:1022600092B2E284E38C9BB273B100963B460022AB
:1022700080212046FFF742FFE0B9002DE7D015F896
:10228000012B23685A60E8E700963B460022402174
:102290002046FFF733FF78B9202384F83D3000E073
:1022A000022002B0BDE8F0810120FAE70120F8E742
:1022B0000220F6E70320F4E70320F2E7044BD3F80B
:1022C000882042F47002C3F88820024A9A6070475E
:1022D00000ED00E000000108224B9B6803F00C03B6
:1022E000042B14D0082B16D01BB11F4B1F4A1A60A9
:1022F00002E01D4B1D4A1A601A4B9B68C3F303137F
:102300001B4AD15C184A1368CB4013607047164BC8
:10231000184A1A60F0E7134B59685A6802F03F02F6
:1023200011F4800F13D0134BB3FBF2F30D4A526834
:10233000C2F3881202FB03F30A4A5268C2F3014255
:1023400001325200B3FBF2F3074A1360D4E7074BA4
:10235000B3FBF2F3034A5268C2F3881202FB03F3A1
:10236000EAE700BF00380240080000200024F40023
:102370006878010840787D0108B500F0AFF800F0FA
:102380002DF808BD30B587B0002401940294039461
:102390000494059400940F4B1A6B42F004021A63E4
:1023A0001B6B03F004030093009B0B4D22464FF47C
:1023B00000512846FFF7F2F84FF400530193012330
:1023C00002930394049401A92846FEF7E9FF07B09D
:1023D00030BD00BF003802400008024008B5FFF7DA
:1023E000D1FF08BD08B530B100224FF400510548B7
:1023F000FFF7D4F808BD01224FF400510148FFF760
:10240000CDF8F7E700080240FEE7000010464FF065
:10241000000C0AE0064B1B6813F0400FFAD011F8CD
:102420000C20034B5A600CF1010C8445F2DB704721
:102430000010014010B588B0002403940494059462
:10244000069407940194214B5A6C42F010025A648E
:102450005A6C02F010020192019A02941A6B42F037
:1024600001021A631B6B03F001030293029B4FF4FA
:10247000C063039302230493032306930723079364
:1024800003A91348FEF78CFF1248134B03604FF467
:10249000E13343608460C46004610C234361846160
:1024A000C461FFF770FE78B9002211462520FEF7BF
:1024B00031FF2520FEF766FF064B1A68D36843F00C
:1024C0002003D36008B010BDFFF79EFF0038024024
:1024D00000000240D84400200010014008B5FFF77A
:1024E000A9FF012008BD000008B50A464FF0FF33E0
:1024F00001460248FFF776FE08BD00BFD844002021
:10250000014B1868704700BF1C45002008B5094AF8
:1025100013680133136001F02DF8036C013B036471
:1025200013B101F0FFF908BDC36B036401F050F86B
:10253000F7E700BF1C450020002815DB0C4981FB94
:102540000023C217C2EBA3124FF47A7C0CFB02F2F9
:10255000831A0CFB03F303F2E73381FB0301D81763
:10256000C0EBA110104470474FF0FF30704700BF20
:10257000D34D621000207047002070470020704744
:102580000020704710B5044C02E054F8043B984713
:10259000024B9C42F9D310BDEC770108F477010897
:1025A00010B5044C02E054F8043B9847024B9C429F
:1025B000F9D310BDF4770108FC77010808B5FFF7DF
:1025C000EFFFFEF74DFD08BD10B582B01423019357
:1025D0000A2300934FF4006300220649064800F0E6
:1025E000CFFF0446054800F0C7FB204601F08FF8F6
:1025F00002B010BDBD250108807801088878010867
:1026000008B5FDF7F5FDFEF7D5FD00F0CBFB01F0B9
:10261000E9F900F01DFEFFF7D7FF01F0F1F900F036
:102620002FF800F03BFE002008BD08B5FFF7E8FFDB
:10263000002008BD38B513E00E4B1B681D4655F849
:1026400014195A684A60196811605B601B60586908
:1026500000F01AFD284600F0DEFD2046FDF7CCFD17
:10266000FDF7C6FD0446034B1A689A42E4D1FDF714
:10267000C3FD38BD6047002008B5FFF7DBFFFCE76E
:1026800010B584B00A4C202303931F2302934FF408
:1026900080730193074B00930023074A07492046A4
:1026A00000F04CFF204601F032F804B010BD00BF2E
:1026B000204500209845002079260108A4780108CB
:1026C00070B5044616461D460A46022100F042FD3A
:1026D00004F11403A3616361A6836572002070BDD9
:1026E0002DE9F04182B005460191FDF781FD0746D5
:1026F000AB8BF3B9019B13B300F03CFF04460023FE
:10270000036305F1140695F8098000F08FFFB8F116
:10271000000F19D0B8F1010F1FD0019B002B3ADC3C
:102720003846FDF769FD00F0D1FD206B02B0BDE831
:10273000F081013BAB83FDF75FFD0020F6E7FDF77D
:102740005BFD6FF00100F1E704F1140372681360A0
:102750007268A26173606661DFE76B699E420FD0A9
:1027600094F8351093F82120914201D31B68F5E7C6
:1027700004F1140259680A605968A1615A606361E2
:102780009E42CAD104F11403726813607268A26198
:1027900073606661C1E704F1440501AA002128467F
:1027A00001F095F8284601F013F8B9E738B504466A
:1027B000FDF71EFD054604F11403606983420AD04B
:1027C000143800F081FF01242846FDF715FD012C87
:1027D00010D0204638BDA38B4FF6FF72934203D032
:1027E0000133A3830024EFE72846FDF705FD6FF0D2
:1027F0000204EEE700F06AFD0024EAE708B5FDF701
:10280000F7FC044A13780133DBB21370FDF7F4FCD4
:1028100008BD00BF9846002008B5FDF7E9FC044A52
:102820001378013BDBB21370FDF7E6FC08BD00BF77
:10283000984600202DE9F04784B099460D9C0E9DE6
:1028400015F0400F17D0DFF850A115F0100F01D090
:1028500025F0010515F0010F10D0302615F0020FFC
:1028600011D0002A0CDB15F0040F21D115F0080F50
:1028700020D1002708E0DFF824A1E6E72026EDE7D5
:1028800052422D2700E0002792BB30238DF8003004
:102890004FF0010CA4452EDC22460C9B9B1A15F030
:1028A000110F38D117B1002B00DD013B9E4626E009
:1028B0002B27E9E72027E7E7364BA3FB023E4FEA49
:1028C000DE0E0EEB8E08A2EB480872461AF808E0FE
:1028D0000CF110036B4403F810EC0CF1010C002A0E
:1028E000D8D0B9F10A0FE7D002F00F081209EDE7CE
:1028F0004FF0000CF3E76246CFE701309E460EF141
:10290000FF33BEF1000F06DD8842F6D24FF0200EF5
:1029100080F800E0F1E727B1884200D20770013B60
:10292000013015F0100F02D00CE001302B465D1E77
:10293000002B03DD8842F8D20670F6E72B4601E053
:102940000130724602F1FF3E624506DD8842F7D251
:1029500030220270F4E7013094460CF1FF32BCF1F2
:10296000000F0BDD54B18842F5D202F110056D4421
:1029700015F8105C0570EEE7013013465A1E002B67
:1029800004DD8842F8D220230370F5E704B0BDE8E7
:10299000F08700BFCDCCCCCC407A0108547A010836
:1029A000032A23D910B4CCB210F0030F20D144EA8B
:1029B000042444EA0444034605E01C605C609C6017
:1029C000DC60103A10330F2AF7D802E043F8044BCA
:1029D000043A032AFAD802E003F8011B624602F126
:1029E000FF3C002AF8D15DF8044B7047034604E031
:1029F0000346F4E703F8011B624602F1FF3C002A9C
:102A0000F8D17047884218D98B18834217D900EB48
:102A1000020C04E013F8012D0CF8012D0A46511E9A
:102A2000002AF7D1704711F8012B03F8012B6246F9
:102A300002F1FF3C002AF6D170470346F8E703464F
:102A4000F6E79AB110B5944603468E460C780131EC
:102A50001C7001331CB1BCF1010CF6D110BDBCF1EE
:102A6000010CFBD0002203F8012BF8E77047034666
:102A700000E001331A78002AFBD1181A70470000D1
:102A80002DE9F04186B0074688461446059346185E
:102A900003D36FEA00084FF0FF36384601E00130FB
:102AA00001342378002B00F05681252B03D0B0424F
:102AB000F5D20370F3E7002101E041F0100114F8B2
:102AC000013F2D2BF9D02B2B08D0202B09D0232B05
:102AD0000AD0302B0BD141F00101F0E741F00401A5
:102AE000EDE741F00801EAE741F02001E7E7A3F153
:102AF0003002092A1BD92A2B1BD04FF0FF3523782F
:102B00002E2B21D04FF0FF3C2278682A43D06C2A2C
:102B100041D0002240E005EB850514F8013B03EBB2
:102B20004505303D2378303B092BF4D9E7E70025F4
:102B3000F8E70134059B1A1D05921D68002DDEDAA9
:102B40006D4241F01001DAE714F8013FA3F13002C1
:102B5000092A16D92A2B17D04FF0000CD4E70CEB1A
:102B60008C0C14F8013B03EB4C0CACF1300C2378CB
:102B7000303B092BF3D9BCF1000FC5DA4FF0000C44
:102B8000C2E74FF0000CF2E70134059B1A1D0592D5
:102B9000D3F800C0EFE701342378252B00F09180B3
:102BA000C0F0B080782B00F2AD80582BC0F0AA8026
:102BB000583B202B00F2A680DFE803F09CA4A4A4DD
:102BC000A4A4A4A4A4A4A411A0A4A4A4A4A0A4A460
:102BD000A4A4A4896FA4A430A4B3A4A4B50011F044
:102BE000100F09D0059B1A1D05921B78B04200D228
:102BF0000370013009E00130013D002DF2DDB042EB
:102C0000F9D220230370F6E70130013D002D7FF754
:102C100047AFB042F8D220230370F5E7059B1A1D99
:102C200005921A680AB1002302E0524AFBE7013319
:102C3000AB4204D012F803E0BEF1000FF7D1BCF1B3
:102C4000000F02DD634500DD634611F0100F03D075
:102C500000210EE001300D46691EAB4204DAB0429D
:102C6000F8D220250570F5E70D46F1E70130013275
:102C70000131994208DAB042F8D292F800C080F8E7
:102C800000C0F3E7013015466A1EAB42BFF608AF3D
:102C9000B042F7D220210170F4E7B5F1FF3F0CD02C
:102CA000059B1A1D05921A680291CDF804C0009583
:102CB00010233146FFF7BEFDF2E641F00101082581
:102CC000EEE7B04201D2252303700130E8E6082385
:102CD0006C2A2AD0682A2FD0059A02F1040ECDF86A
:102CE00014E012680291CDF804C000953146FFF758
:102CF000A1FDD5E641F040011023E9E741F00201D2
:102D00000A23E5E7B04201D225230370421C237851
:102D100023B1B24200D243700230C1E6013C1046FA
:102D2000BEE60A23D4E71023D2E7059A02F1040E87
:102D3000CDF814E01268D5E7059A02F1040ECDF83B
:102D400014E0D2F800E01FFA8EF211F0020FC9D0A1
:102D50000FFA8EF2C6E7B8F1000F02D0B04204D2EB
:102D60000370C01B06B0BDE8F081002306F8013CEB
:102D7000F7E700BFAC7801080FB410B582B004AB20
:102D800053F8042B0193064C7F212046FFF778FE71
:102D90002046FEF737FA02B0BDE8104004B0704795
:102DA0009C46002000B583B00948FFF7E5FF0948BD
:102DB000FFF7E2FF084B0093052301220321074898
:102DC000FFF7DAFF0648FFF7D7FF03B05DF804FB13
:102DD000B4780108C078010808790108E87801088A
:102DE00014790108E8B110F0FF020AD110F47F4F06
:102DF0000BD110F47F0F0ED1030E0A4AD05C1930AC
:102E00007047084B985C01307047C0F30723054AB0
:102E1000D05C09307047C0F30743024AD05C1130E0
:102E20007047704740790108164B196842680A4498
:102E300090420FD053886BB9134B1B68934209D053
:102E4000124B1B68934216D05368436053680B447F
:102E5000421A9A6083680B4498420BD05A884AB948
:102E60000A4A1268824209D042685A6042680A449B
:102E70005B1A93607047054B1860E5E7034A1360DF
:102E8000F2E700BF204700201C47002044470020F5
:102E900008B5084B19680848FFF76EFF074B19681B
:102EA0000748FFF769FF074B19680748FFF764FFFA
:102EB00008BD00BF4C470020687A01085047002039
:102EC0007C7A010848470020907A010870B50A46CC
:102ED00021F00303182B06D9C41C24F00304A3F12A
:102EE0001801A14204D201461148FFF745FF70BD09
:102EF0001B1BA3F118010F4A11600F4D2C604FF4FA
:102F0000F5522280A3F10C0161600023A36063806D
:102F100060180A4E30606252012242804160816036
:102F200007490848FFF7CCFB2A68074B1A60DEE721
:102F3000B87A01084C470020204700201C47002099
:102F4000B07A0108244700204447002000287AD0A6
:102F5000F8B50546033525F003053D4B1B689D423A
:102F600073D80B2D00D80C254FF0FF313948FFF7EF
:102F7000B7FB394B1E68394B1868331A1DE0012323
:102F80006380231AFB1A364A11680B441360354AD2
:102F90001268934247D9334A136044E05B680344A4
:102FA0002D4A13602C4B1B685A88002A40D02E4AA9
:102FB00012689342F2D13BE06368254A1268511BC4
:102FC00099423BD9C41861880029F5D16768F91A7C
:102FD0000C39A942F0D305F1180C6145CFD3E9189B
:102FE0000C3100EB010C4FF4F55747520027ACF8B9
:102FF00002706768CCF80470CCF808306160012377
:103000006380DCF804300C32934201D003449960B1
:10301000134A13682B440C331360124A126893420C
:1030200001D9104A13604FF4F5532380A642B9D05A
:103030000848FFF7BBFB04F10C0003E00548FFF76D
:10304000B5FB0020F8BD002070470020FAE700BF64
:103050004C47002024470020444700202047002000
:1030600050470020484700201C47002038B501FB8E
:1030700000F42046FFF76AFF054618B122460021FA
:10308000FFF78EFC284638BD002842D038B50446EC
:10309000204B1B68834203D81F4B1B68834200D818
:1030A00038BDA0F10C054FF0FF311C48FFF718FBAD
:1030B00034F80A3C23B134F80C3CB3F5F55F0AD080
:1030C0001748FFF759FE34F80C3C34F80A2C29460F
:1030D0001448FFF751FE002324F80A3C4FF4F5533F
:1030E00024F80C3C104B1B68AB4201D90E4B1D6001
:1030F000084B1B68EB1A54F8081C0C4A5B1A116841
:103100000B4413602846FFF78FFE0448FFF74EFB81
:10311000C6E77047204700201C47002024470020B6
:10312000F47A0108107B0108444700205047002032
:103130000023032B09DC1A0105498A5C824201D075
:103140000133F6E701EB031070470020704700BF22
:103150000C0000202DE9F04106460F469046084637
:10316000FFF7E6FF054600F035F96B6800E01B68E5
:103170002C1D9C42FBD100F039F967F07F073772B4
:10318000082241463046FFF75CFCFDF731F806F1B6
:103190000C036A6853606A68F2606B603461FDF723
:1031A0002BF8BDE8F08110B5044600230372FDF74B
:1031B0001FF804F10C03E16822694A60E1681160BC
:1031C0002361E360FDF718F810BDF8B507460E4619
:1031D000FFF7AEFF0446C068FFF7B8FE0546C0B172
:1031E000E2680021FFF7DCFB2F7200236B720822DC
:1031F00031462846FFF725FCFCF7FAFF221D05F1B2
:103200000C0361684B606168E96063602A61FCF7E8
:10321000F3FF2846F8BD10B5044600230372FCF7FF
:10322000E7FF04F10C03E16822694A60E16811607C
:103230002361E360FCF7E0FF2046FFF725FF10BDA8
:1032400090F90830002B01DB002070470120704707
:1032500000230C4A138006E00B4901EBC3025260C5
:1032600041F8332001331F2BF6DD084B1F221A7063
:103270000023074A1360074A1360074B5B601B601B
:10328000704700BF5C47002068470020544700207B
:1032900058470020684800206047002008B5084BC8
:1032A0001868FFF79FFD0138064B53F83000A0F176
:1032B0001402054B1A600830FCF7E7FF08BD00BF99
:1032C00068480020684700205847002038B5FCF7C0
:1032D0008FFF0446144BB3F90030C3B9134B186881
:1032E000FFF780FD431E124A52F83310A1F1140279
:1032F0001048006890420AD00F4D2B700D4B1A6099
:103300000E4B1B783BB108311C30FCF778FF204690
:10331000FCF772FF38BD08311C30FCF770FF204607
:10332000FCF76AFFF6E700BF5C4700206848002012
:103330006847002058470020544700209846002046
:1033400010B50446FCF754FF94F9343023F00F0312
:1033500043F0010384F8343094F83520094B03EB33
:10336000C20304F1140259680A605968A1615A60E5
:103370006361A16B044A13680B431360FCF73CFFC5
:1033800010BD00BF684700206848002010B5044603
:10339000FCF72EFF04F114036169A2694A606169B8
:1033A0001160A361636194F83520084B03EBC201FF
:1033B00053F83230994202D0FCF71EFF10BDA16BCA
:1033C000034A136823EA01031360F5E76847002006
:1033D0006848002008B5FCF70BFF034A1388013347
:1033E0001380FCF709FF08BD5C47002008B5FCF717
:1033F000FFFE0B4A1388013B1BB21380002B02DD3A
:10340000FCF7FAFE08BD134600221A80FCF7F4FE12
:10341000044B1B68002BF5D0FFF758FFF2E700BF05
:103420005C4700205847002038B50446FCF7E0FE12
:103430000546236F0BB1204698472846FCF7DCFE73
:1034400038BD000038B5144B1C68FCF7D1FE0546AA
:103450002046FFF7E9FF2046FFF798FF042384F892
:10346000343004F1440000F093F92046FFF7E8FE01
:1034700001280DD004F11402084B19684A606161FB
:103480001A60A361FFF722FF2846FCF7B5FE38BD9E
:103490002046FFF788FEF5E75847002060470020E8
:1034A000F0B583B0044617460898099A9DF828504D
:1034B0000B9E04F11401A161616127626362A06245
:1034C000E2622321FFF76CFAA16AE36A1A1F104B2C
:1034D0000A44616A206A00F0DFFBE06184F836503C
:1034E00084F835500025A563E6632664256384F8D7
:1034F000345025676567019500952346054A2146A6
:1035000004F1440000F030F9284603B0F0BD00BFDC
:10351000453401081935010810B56FF00102026346
:1035200000F1140281694469616044690C60826140
:103530004261FFF705FFFFF7C9FE10BDF0B585B08A
:1035400005460C4616461F460A460121FFF702FEB5
:103550000D9B03939DF8303002930B9B01930A9BC4
:1035600000933B46324621462846FFF799FF05B0B7
:10357000F0BD0000014B1868704700BF584700209D
:103580002DE9F04385B004460F4690461D4601469E
:103590000120FFF71AFE064688B12846FFF7D6FC41
:1035A000814680B10D9B03939DF8303002930195C5
:1035B000009043463A4621463046FFF771FF3046B9
:1035C00005B0BDE8F0833046FFF725FE4E46F6E72E
:1035D00010B5FCF70DFE134B1B6893F8342002F076
:1035E0000F02012A03D159699A69914203D1FCF76C
:1035F00003FE002010BD03F114044A6059691160F4
:103600009C615C6193F83510074A02EBC102516876
:103610000C605168996154605A61FCF7EDFDFFF749
:1036200055FEE6E7584700206847002038B590F877
:10363000343003F00F03012B17D10446FCF7D8FDFB
:1036400005462046FFF7A2FE94F9343023F00F031D
:1036500043F0020384F8343004F1440000F014F91C
:103660002846FCF7C9FD002038BD4FF0FF30FBE7CE
:1036700070B582B00190FCF7BBFD05460E4B1C688F
:103680002046FFF7D3FF04F1440601AA002130468B
:1036900000F01DF9304600F09BF82846FCF7ACFD21
:1036A000FFF714FE236B13F1020F02D0002002B0CB
:1036B00070BD00232363F9E75847002008B5FEF7E3
:1036C0003BFFFFF7D5FF08BD38B590F8343003F065
:1036D0000F03022B18D10446FCF78AFD054604F1BE
:1036E00014036169A2694A6061691160A361636141
:1036F00004F1440000F0C8F82846FCF77DFD2046A0
:10370000FFF71EFE002038BD4FF0FF30FBE708B585
:1037100090F8361080F8351001228A408263022228
:1037200080F83420FFF7D0FFFFF724FF08B1FFF740
:10373000CDFD002008BD9DF800C080F809C02CF028
:10374000010C80F809C0C1610262002282624362FA
:103750001346002B00DD70479A1C00EBC202111DBE
:10376000916051600133F4E770B582B004461546AC
:103770001E460A460A21FFF7EDFC9DF81C30009317
:10378000069B324629462046FFF7D5FF02B070BDA2
:1037900070B50446FCF72CFD0022002A0ADD637A8E
:1037A00023F001036372FCF727FD2046FFF7FBFCC3
:1037B000002070BD931C04EBC303191D9D685E6857
:1037C00075605E682E60996059600132E5E700001F
:1037D00070B582B00446FCF70BFD05460022002AB6
:1037E00023DD637A23F001036372FEF789FE636AC7
:1037F000C618A662224B0193002242B3214A1368E5
:1038000001331360019B04F1140219684A601968BE
:1038100061611A60A361637A43F001036372284611
:10382000FCF7EAFC002002B070BD931C04EBC3035C
:10383000191D5E68986870605E68066099605960DE
:103840000132CCE702AB03EB820343F8041C02AB6A
:1038500003EB820353F8040CD300094901EBC201C6
:10386000496888420AD001681433CB1A9B6A9E4289
:10387000E8D09B1B6FF000408342E3D20132BCE7EB
:10388000704800206C480020437A13F0010F1BD0D1
:1038900070B50446FCF7ACFC0022002A07DD637A11
:1038A00023F001036372FCF7A7FC002070BD931C9A
:1038B00004EBC303191D9D685E6875605E682E6029
:1038C000996059600132E8E74FF0FF30704770B5FA
:1038D00005460C461646FCF78BFC042C06D8DFE8A0
:1038E00004F009030C1116006B6A3360FCF784FCCA
:1038F000002070BD33686B62F8E76B7A23F0020337
:103900006B72F3E76B7A43F002036B72EEE76B7A4C
:1039100013F0010F02D001233360E7E70023336087
:10392000E4E700002DE9F04182B0CDF804D0CDF8F5
:1039300000D0FEF7E5FD0546FCF75AFC804632E074
:10394000931C06EBC303191D5D68986868605D6889
:103950000560996059600132002AF1DD14F80B3CD2
:1039600013F0020F03D123F0010304F80B3C009B7A
:103970005C60236000946F466760A368E0689847C6
:10398000FEF7BEFD0546009BBB420CD02268636873
:10399000536022681A606460246014F80B3C03F0E2
:1039A0000302032A0DD00E4B1C689C4211D0A4F1D7
:1039B00014066369EB1A6FF00042934209D20022A9
:1039C000CAE723F0010304F80B3C3046FFF700FF81
:1039D000E9E74046FCF710FC02B0BDE8F08100BF0B
:1039E00070480020002303B17047044901EBC30273
:1039F000526041F833200133F5E700BF70480020E2
:103A00007047000010B52648FFF7B6F9254C94F82A
:103A100029102548FFF7B0F994F8293013F0010F69
:103A200021D1204B93F8293013F0020F1FD11D4BE9
:103A300093F8293013F0040F1DD11A4B93F8293055
:103A400013F0080F1BD1174B93F8293013F0100F08
:103A500019D1144B93F8293013F0800F17D1134864
:103A6000FFF78AF910BD1248FFF786F9D9E7114828
:103A7000FFF782F9DBE71048FFF77EF9DDE70F4833
:103A8000FFF77AF9DFE70E48FFF776F9E1E74FF045
:103A9000E023D3F8381D0B48FFF76EF9E2E700BFCB
:103AA0006C7B010800ED00E0787B0108107E0108C6
:103AB000907B01089C7B0108A87B0108B87B01086A
:103AC000C47B0108CC7B010810B52148FFF754F9ED
:103AD000204C94F828102048FFF74EF994F828302D
:103AE00013F0010F1BD11B4B93F8283013F0020F7A
:103AF00019D1184B93F8283013F0080F17D1154B34
:103B000093F8283013F0100F15D1124B93F828308A
:103B100013F0800F13D11148FFF72EF910BD104894
:103B2000FFF72AF9DFE70F48FFF726F9E1E70E482C
:103B3000FFF722F9E3E70D48FFF71EF9E5E74FF03D
:103B4000E023D3F8341D0A48FFF716F9E6E700BF73
:103B5000DC7B010800ED00E0F07B0108107E01082D
:103B6000087C0108147C0108207C01082C7C0108D9
:103B7000387C010810B52148FFF7FEF8204C618D14
:103B800089B22048FFF7F8F8638D13F0010F1CD1BC
:103B90001B4B5B8D13F0020F1BD1194B5B8D13F088
:103BA000040F1AD1164B5B8D13F0080F19D1144B6B
:103BB0005B8D13F4807F18D1114B5B8D13F4007F64
:103BC00017D11148FFF7D8F810BD1048FFF7D4F807
:103BD000DEE70F48FFF7D0F8DFE70E48FFF7CCF835
:103BE000E0E70D48FFF7C8F8E1E70C48FFF7C4F835
:103BF000E2E70B48FFF7C0F8E3E700BF487C0108A5
:103C000000ED00E0587C0108107E0108707C01087E
:103C10007C7C0108887C0108907C0108987C010864
:103C2000A47C010808B54FF0E023D3F82C3D13F035
:103C3000020F19D14FF0E023D3F82C3D13F0804F41
:103C40000BD0124B93F8293093B9104B93F82830CE
:103C50008BB90E4B5B8D9BB283B94FF0E023D3F849
:103C60002C3D002B0DDB08BD0948FFF785F8E1E787
:103C7000FFF7C8FEE9E7FFF727FFEAE7FFF77AFF5C
:103C8000EBE70448FFF778F8EDE700BF00ED00E050
:103C9000B07C0108C87C010830B40546043222F02B
:103CA000070CACF14400002203E00E4C40F8224027
:103CB0000132102AF9D94CF8201C00224CF81C2C97
:103CC0004CF8182C4CF8142C4CF8102C4CF80C3CDC
:103CD0004CF8085C4FF080734CF8043C4CF8442CD2
:103CE00030BC7047EFBEADDE10B50446314B1B68EB
:103CF0001BB12830984700285AD0616C2E48FFF736
:103D00003BF8A16A2D48FFF737F8E16A2C48FFF726
:103D100033F8216B2B48FFF72FF8616B2A48FFF728
:103D20002BF8A1682948FFF727F8E1682848FFF732
:103D300023F821692748FFF71FF861692648FFF734
:103D40001BF8A1692548FFF717F8E1692448FFF738
:103D500013F8216A2348FFF70FF8616A2248FFF73A
:103D60000BF8A16B2148FFF707F8E16B2048FFF73C
:103D700003F8216C1F48FEF7FFFF236813F0040FC0
:103D80000ED0FFF7F7FB01461B48FEF7F5FF00F0EA
:103D9000A1F8236813F0100F06D0FFF743FFFEE7EA
:103DA0001648FEF7E9FFF4E71548FEF7E5FFF4E7EC
:103DB00010BD00BF78480020D87C0108E87C0108CD
:103DC000F87C0108087D0108187D0108287D01089C
:103DD000387D0108487D0108587D0108687D01088B
:103DE000787D0108887D0108987D0108A87D01087B
:103DF000B87D0108C87D0108D87D0108F87D01085B
:103E0000147E010808B50248FEF7B6FF002008BD81
:103E1000247E010838B50546046800E02468AC42F9
:103E20000BD0A4F114010548FEF7A6FF2368AB42AE
:103E3000F4D00348FEF7A0FFF0E738BD387E010854
:103E40003C7E010808B5FEF7ADFF002008BDF8B5BF
:103E500000230B61CB684BB304460E460B7A3BB391
:103E60000F68B0B10025FCF7C3F935B914F8043C6C
:103E700023F08003327A93420ED1736800252468C0
:103E8000A7420DD0013543F8044BF268AA42F6D19F
:103E900007E03C460125E6E7FCF7AEF9002403E025
:103EA0000024FCF7A9F935612046F8BD0024FBE7A2
:103EB0000024F9E7F8B504460D4617461E460846A5
:103EC000FFF736F90430206025726760E660002352
:103ED0002361F8BD2DE9F043AFB0082321AA0121E9
:103EE00029A8FFF7E7FF434A08214348FEF744FFAC
:103EF0004FF0080808F1FF34B8F1000F04D03F4834
:103F0000FEF73AFFA046F5E73D48FEF735FF0027EC
:103F100065E07822494603A800F0E0FD3046FCF752
:103F20006BF994F829300093A4F10C030822114690
:103F30003448FEF721FF94F8283003F00F03012BDB
:103F400009D0022B0BD073B1042B10D0032B12D04D
:103F5000E069034614E02C48FEF70EFFF8E72B4813
:103F6000FEF70AFFF4E72A48FEF706FFF0E72948C4
:103F7000FEF702FFECE72848FEF7FEFEE8E7013314
:103F80001A78232AFBD0226A2169411AC31A1344E2
:103F9000642000FB03F3606A0190606B0090B3FB48
:103FA000F2F311441D48FEF7E7FE01352D9BAB42AD
:103FB00014DD2EAB03EB850353F8344CA4F10C094C
:103FC000FCF716F9064614F8043C23F080039DF82C
:103FD000AC2093429DD0FCF70FF9E6E737B129A951
:103FE0003846FFF734FF07464546DFE700202FB08D
:103FF000BDE8F083407E0108487E01088C7E010800
:10400000907E0108D07E0108DC7E0108E87E010870
:10401000F47E0108007F01080C7F0108187F010869
:104020002DE9F04190B0082303AA02210BA8FFF765
:1040300041FF344A08213448FEF79EFE4FF008083D
:1040400008F1FF34B8F1000F04D03048FEF794FEB9
:10405000A046F5E72E48FEF78FFE002746E0FCF766
:10406000CBF801350F9BAB423FDD10AB03EB850373
:1040700053F8346CFCF7BCF816F8043C23F08003CA
:104080009DF834209342EAD1FCF7B6F806F1080413
:10409000B3689C4217D0A6F10C03308A2246002157
:1040A00000E0013112689442FBD101910090082296
:1040B00011461848FEF760FE2046FFF7ABFE164893
:1040C000FEF75AFECDE7A6F10C03308A2246002106
:1040D00000E0013112689442FBD101910090082266
:1040E00011460E48FEF748FEBBE737B10BA938462C
:1040F000FFF7ADFE07464546B4E7002010B0BDE827
:10410000F08100BF407F01084C7F01088C7E0108D0
:10411000687F0108807F0108107E0108907F0108F8
:104120002DE9F04192B0082305AA05210DA8FFF75B
:10413000C1FE364A08213648FEF71EFE4FF0080839
:1041400008F1FF34B8F1000F04D03248FEF714FE36
:10415000A046F5E73048FEF70FFE00274AE0FCF7DF
:104160004BF80136119BB34243DD12AB03EB8603E0
:1041700053F8345CFCF73CF815F8043C23F080035A
:104180009DF83C209342EAD1FCF736F805F108048B
:10419000AB689C4219D0A5F10C03E88AAD8A22468F
:1041A000002100E0013112689442FBD10291019597
:1041B0000090082211461948FEF7DEFD2046FFF761
:1041C00029FE1748FEF7D8FDCBE7A5F10C03E88AD6
:1041D000AD8A2246002100E0013112689442FBD1F1
:1041E000029101950090082211460E48FEF7C4FD89
:1041F000B7E737B10DA93846FFF729FE074646460F
:10420000B0E7002012B0BDE8F08100BFA07F010838
:10421000A87F01088C7E0108CC7F0108E87F010897
:10422000107E010800800108F0B591B0082303AAB0
:104230000A210BA8FFF73EFE294A08212948FEF76C
:104240009BFD082703E02848FEF796FD27467C1EC5
:10425000002FF8D12548FEF78FFD00262FE0FBF751
:10426000CBFF01340F9BA34228DD10AB03EB84038B
:1042700053F8345CFBF7BCFF15F8043C23F08003D3
:104280009DF834209342EAD1FBF7B6FFEB69019326
:10429000AB690093A5F10C03082211461448FEF700
:1042A0006BFD15F8033C13F0010F03D01148FEF726
:1042B00063FDD6E71048FEF75FFDD2E736B10BA9E4
:1042C0003046FFF7C4FD06463C46CBE7FEF718F93B
:1042D00001460A48FEF750FD002011B0F0BD00BFB6
:1042E00018800108208001088C7E010848800108A0
:1042F0006C8001088480010890800108A08001087A
:1043000038B50D48FEF738FD0C4B1C6800E00C3446
:104310000B4B1B68A3420DD9256802220949284688
:1043200001F0EAF80028F2D0626829460648FEF754
:1043300023FDECE7002038BDB88001088848002044
:104340008C480020CC800108D08001080346027808
:104350006AB110B40C7834B1A24204D101330131F6
:104360001A78002AF6D1181A5DF8044B7047001A23
:104370007047000070B515460024234651E08B427B
:104380000BD2002200F8012B013390F800C0BCF1E1
:10439000200FF4D0BCF1090FF1D0072C08D88B42C4
:1043A00016D2BCF1220F15D045F8240001342FE0BD
:1043B0001D48FEF7E1FC0026B44206D955F8261048
:1043C0001A48FEF7D9FC0136F6E71948FEF7D4FC87
:1043D000204670BD0130013345F82400013401E06E
:1043E000013001330278222A09D08B4207D25C2A9D
:1043F000F6D14278222AF3D101300133F0E78B4223
:10440000E6D2002200F8012B01330AE0013001332B
:104410000278202A03D0092A01D08B42F6D38B429E
:10442000D6D28B42B1D3D3E7AC820108CC8201084B
:10443000107E010838B50F48FEF79EFC0E4B1C6835
:1044400000E00C340D4B1B68A3420DD925680622F1
:104450000B49284601F050F80028F2D16268A91DE6
:104460000848FEF789FCECE70748FEF785FC0020CA
:1044700038BD00BFD0820108884800208C48002049
:10448000EC820108F4820108107E0108F8B50746A5
:104490000E460F4B1C6800E00C340E4B1B68A34209
:1044A00014D9256806220C49284601F025F8002871
:1044B000F2D132463946A81D01F01EF80028EBD192
:1044C000B31DEB5C002BE7D1A06800E00020F8BD35
:1044D000884800208C480020EC82010808B5FFF7CE
:1044E000F9FC002008BD08B5FEF7D2FC002008BD8D
:1044F000F0B589B004460D461646002100E00131B2
:10450000635C202B03D0092B01D0A942F7D3A9B1BA
:104510002046FFF7BBFF074698B1202200216846DE
:1045200000F0EAFA6A4629462046FFF723FF58B111
:104530006946B8473060002009B0F0BD4FF0FF3049
:10454000FAE74FF0FF30F7E74FF0FF30F4E70120D4
:104550007047000010B582B0044601E00134013913
:1045600021B12378202BF9D0092BF7D011B90020E5
:1045700002B010BD01AA2046FFF7BAFF80B901982A
:10458000F6E701321378202B01D0002BF9D100235C
:10459000137021460348FEF7EFFB4FF0FF30E7E7CB
:1045A0002246EFE7008301082DE9F843037833B191
:1045B0000646204B1D684FF0000847460AE00021E0
:1045C0000846FFF737FF33E021461B48FEF7D4FBD0
:1045D0004F460C35194B1B68AB4221D92C6806227B
:1045E0001749204600F088FF0028F2D106343046F3
:1045F000FBF79CFE02462146304600F07DFF002876
:10460000E7D127B92046FBF791FE0746A046214691
:104610004046FFF79BFE81468742D5DCB946D3E78B
:10462000B8F1000F04D03A4641463046FEF709FA89
:10463000BDE8F88388480020FC8201088C480020EF
:10464000EC82010808B5FCF705FE08BD174B1B6896
:1046500093F8213013F0020F09D010B5144B1968EC
:1046600051B18022134800F05BFF124810BD114B7E
:1046700000221A700F487047FFF769FF68B10D4BB1
:104680000D4A92E80300186019710A4C2046FBF7A6
:104690004DFE0A4B1B882352E7E7064B084A92E877
:1046A000030018609980090C9971EEE720490020F9
:1046B0001C4900209848002098830108A88301081D
:1046C000A083010810B504460948FEF755FBFFF723
:1046D0003EFF012807D0FFF7B9FF014622460548F3
:1046E000FEF74AFB10BD2046FFF75EFFF3E700BF71
:1046F000107E0108AC83010810B5AB4B1A6892F824
:10470000213043F0010382F82130FFF79FFFFEF7CD
:1047100033FB04E0A44B1B68012283F82020FFF741
:1047200091FF041EFBDB1B2CF4D09F4B1B6893F8FE
:104730002020012A40D0022A48D0002CEFD0FF2CA4
:10474000EDD0092C00F089807F2C00F08880082CA7
:1047500000F085800D2C00F0C9800A2C00F0C68086
:10476000B3F872204F2A02D90022A3F87220B3F8BE
:1047700074C0B3F872209445C0F0E1801A4482F806
:10478000224093F8213013F0010F40F00781864B4F
:104790001A68B2F8723001339BB2A2F87230B2F8E4
:1047A00074100131A2F874104F2BB8D90023A2F86D
:1047B0007230A2F87430B2E75B2C03D0002283F889
:1047C0002020BAE7022283F82020A8E7002283F8FD
:1047D0002020412CA3D0422CA1D0442C15D0432C16
:1047E000ABD1B3F87420B3F872108A4297D2134455
:1047F00093F822106D48FEF7BFFA6B4B1A68B2F8B7
:1048000074300133A2F8743089E7B3F87430002BA8
:1048100085D06748FEF7B0FA634B1A68B2F8743077
:10482000013BA2F874307AE76148FEF7A5FA01343B
:104830005D4B1868B0F87430A342F5DC2230FFF706
:1048400041FF594B1C6804F12200FBF76FFD80B259
:10485000A4F87200A4F8740061E70024E8E7B3F854
:10486000741000293FF45BAFB3F87220013A92B2A2
:10487000A3F87220013989B2A3F874108A420BD8C8
:104880004C48FEF779FA484B1B68B3F87220134482
:10489000002283F8222042E701F12000184401F1B0
:1048A00021042344521A991C0230FEF7ABF83E4C07
:1048B0002368B3F872201A44002182F82210B3F85A
:1048C000742020321344991C3B48FEF755FA2368A4
:1048D000B3F87440344B1B68B3F87230A342FFF650
:1048E0001EAF3348FEF748FA0134F3E7FFF72FFE17
:1048F000012811D0FFF7AAFEFEF73EFA2A4B1C68EA
:104900005022002104F1220000F0F6F80023A4F860
:104910007230A4F8743002E7234B1B6893F82130FF
:1049200013F0010F07D1204B1868B0F87210223035
:10493000FFF710FEDEE72148FEF71EFAF3E70CF161
:10494000210018440CF120011944A2EB0C020231A1
:104950000230FEF757F8144B1B68B3F8742099180F
:1049600081F8224093F8211011F0010F04D10E4B71
:104970001B68B3F874400AE020321344991C1048B5
:10498000FEF7FAF9F3E70A48FEF7F6F90134064BA9
:104990001B68B3F87230A342F5DCF8E62146034801
:1049A000FEF7EAF9F3E600BF20490020B8830108CA
:1049B000B4830108C4830108BC830108107E010888
:1049C000387E0108044B1B6893F8212060F34102F4
:1049D00083F82120704700BF20490020024B186057
:1049E000024B1960704700BF884800208C480020A7
:1049F000024B1860024B1960704700BF90480020BE
:104A00009448002010B582B019491A48FFF7E6FF14
:104A100019491A48FFF7ECFF78210120FEF726FB21
:104A2000174B1860E0B10A230193152300934FF44C
:104A30008063002213491448FEF7A2FD04460023B8
:104A40001A4612490E480068FDF73AFE0120FFF7AA
:104A5000B9FF5CB12046FEF75AFE002002B010BD3F
:104A60000B48FEF789F94FF0FF30F7E70020F5E734
:104A7000E877010828770108E8770108E877010856
:104A800020490020F9460108E0830108E883010875
:104A9000C883010870B50D4D0D4C641BA410002691
:104AA000A64209D10B4D0C4C02F032FE641BA4103F
:104AB0000026A64205D170BD55F8043B9847013643
:104AC000EEE755F8043B98470136F2E71C880108E9
:104AD0001C8801081C880108208801080A449142AA
:104AE00000F1FF3300D1704710B511F8014B03F806
:104AF000014F9142F9D110BD02440346934200D1C7
:104B0000704703F8011BF9E72DE9FF4755EC104BFF
:104B1000002D0E4619462B46BBBF05F100431D462E
:104B200000232D230B700D9BDDF830A0914623F060
:104B30002008BCBF22461446B8F1460F05D0B8F194
:104B4000450F00D10136022100E0032103AB0193A0
:104B500002AB009345EC104B5346324600F040FE4A
:104B6000B8F1470F074602D119F0010F22D0B8F172
:104B7000460F07EB060910D13B78302B0AD10022F3
:104B8000002320462946FCF74FF818B9C6F1010664
:104B9000CAF80060DAF80030994400220023204669
:104BA0002946FCF741F808B1CDF80C903022039B60
:104BB0004B4507D3039B0E9ADB1B3846136004B0AA
:104BC000BDE8F087591C03911A70F0E7F7B503466A
:104BD0000029B8BF494203F8022BB4BF2D222B2273
:104BE000092942702ADD0DF10704A4460A27A646CA
:104BF0000A4691FBF7F607FB16153035632A04F1D8
:104C0000FF340EF8015C3146F1DC3031AEF10205C3
:104C100004F8011C441C294661450AD30DF1090220
:104C2000A2EB0E02654588BF00221344181A03B098
:104C3000F0BD11F8012B04F8012FEDE730233031DE
:104C40008370C170031DF1E72DE9F04F2DED028B4C
:104C50008DB00C46DDF8608016461F46054601F013
:104C600065FDD0F800A05046FBF760FB00230A93D7
:104C700023680593D8F8003094F818B0073323F070
:104C8000070303F10802C8F80020D3E90023C4E9B0
:104C90001223D4E9128929F000430793CDF8188034
:104CA00008EE100A9F4BDDE906014FF0FF32FBF7DB
:104CB000EDFF88BBDDE906019A4B4FF0FF32FBF7B1
:104CC000C7FF48BB0022002340464946FBF7B6FF1A
:104CD00010B12D2384F84330934B9448BBF1470F18
:104CE00094BF9846804603232361059B23F004026A
:104CF00022604FF00009009733460BAA2146284650
:104D000000F0D8F9013040F090804FF0FF300DB046
:104D1000BDEC028BBDE8F08F42464B46404649460B
:104D2000FBF7B4FF40B14B46002BBCBF2D2384F8EA
:104D300043307F487F4BD1E763680BF0DF02069278
:104D40005A1C3FD106236360059B616843F480626F
:104D5000002303930AABCDE901B309AB49EC108BF7
:104D6000009322600DF123032846FFF7CDFE069B3A
:104D70000999472B804608D1C81C02DB6368994219
:104D800041DDABF1020B5FFA8BFBBBF1650F20D865
:104D900001395A4604F150000991FFF717FF0A9AAA
:104DA0001318012A8146236102DC2268D20701D54B
:104DB000013323619DF82330002B9CD02D2384F8F0
:104DC000433098E7069A472ABED1002BBCD1012375
:104DD000B9E7BBF1660F18D1002963680BDD2161CB
:104DE00013B92268D00702D501330B442361A165B2
:104DF0004FF00009DEE713B92268D20701D502336C
:104E0000F4E70123F2E74FF0670B0A9B994205DBB9
:104E100023682161D807EAD54B1CE7E70029D4BFF6
:104E2000C1F1020201221344E0E723685A0507D4C6
:104E30002369424631462846B84701302CD164E701
:104E4000BBF1650F40F2E080D4E91201002200239B
:104E5000FBF7EAFE002834D0374A012331462846C2
:104E6000B84701303FF451AFDDE909239A4202DB34
:104E70002368D80710D518EE103A52463146284616
:104E8000B84701303FF441AF4FF0000804F11A0970
:104E90000A9B013B434509DC23689B0700F1058120
:104EA000E0680B9B9842B8BF184630E701234A469A
:104EB00031462846B84701303FF427AF08F10108D2
:104EC000E6E7099B002B39DC1B4A012331462846C3
:104ED000B84701303FF419AFDDE90923134302D18C
:104EE0002368D907D8D518EE103A524631462846DD
:104EF000B84701303FF409AF4FF0000904F11A0A36
:104F0000099B5B424B4501DC0A9B92E70123524619
:104F100031462846B84701303FF4F7AE09F10109A0
:104F2000EEE700BFFFFFEF7FF4830108F88301087D
:104F300000840108FC830108048401080A9AA36D17
:104F40009A42A8BF1A46002A914637DC4FF0000B60
:104F500029EAE97904F11A02A36D0593A3EB090389
:104F60005B4533DCDDE909239A423BDB2368DA0742
:104F700038D40A9B059A09999A1AA3EB010991451D
:104F8000A8BF9146B9F1000F35DC4FF0000829EABF
:104F9000E97904F11A0ADDE909239B1AA3EB090355
:104FA00043457FF779AF0123524631462846B8473B
:104FB00001303FF4AAAE08F10108ECE71346314690
:104FC00042462846B8470130C0D19EE6012331460B
:104FD00028460592B84701303FF497AE059A0BF189
:104FE000010BB9E718EE103A524631462846B84749
:104FF0000130BED189E6059A4B46424431462846E7
:10500000B8470130C1D180E60A9A012A01DCDB07EA
:1050100038D50123424631462846B84701303FF48F
:1050200074AE18EE103A524631462846B847013061
:105030003FF46BAED4E9120100220023FBF7F4FD2C
:10504000D8B90A9B08F10102013B31462846B8470E
:1050500001300ED159E60123524631462846B84761
:1050600001303FF452AE08F101080A9B013B434571
:10507000F1DC4B4604F15002DCE64FF0000804F18D
:105080001A0AF2E701234246DFE701234A46314686
:105090002846B84701303FF438AE08F10108E3680C
:1050A0000B995B1A4345F0DCFAE64FF0000804F177
:1050B0001909F4E72DE9F047164699468A680B6905
:1050C000DDF820809342B8BF1346336091F8432047
:1050D00007460C460AB1013333602368990642BF84
:1050E000336802333360256815F0060506D104F1F4
:1050F000190AE36832689B1AAB4226DC94F8432015
:10510000131E226818BF012392062BD404F1430218
:1051100049463846C04701301ED02368E5683268EA
:1051200003F00603042B08BFAD1AA36822690CBF65
:1051300025EAE57500259342C4BF9B1AED180026A9
:105140001A34B5421AD1002008E0012352464946DC
:105150003846C047013003D14FF0FF30BDE8F0873B
:105160000135C6E7E1185A1C302081F8430022447B
:1051700094F8451082F843100233C7E70123224612
:1051800049463846C0470130E6D00136D9E700002D
:105190002DE9FF470F7E0C9D782F914680460C46E7
:1051A0009A4601F1430207D8622F0AD8002F00F077
:1051B000D880582F00F0A38004F1420584F8427093
:1051C0003AE0A7F16303152BF6D801A151F823F0BB
:1051D000295201083D520108B9510108B95101088D
:1051E000B9510108B95101083D520108B9510108EE
:1051F000B9510108B9510108B951010849530108D1
:105200006D5201082B530108B9510108B951010829
:105210006B530108B95101086D520108B9510108D9
:10522000B9510108335301082B681A1D1B682A6005
:1052300004F1420584F842300123A3E02068296884
:10524000060601F104030AD50E682B60002E03DA6E
:105250002D23764284F843305E480A2319E00E6815
:105260002B6010F0400F18BF36B2EFE72B682068B4
:10527000191D2960010601D51E6802E04606FBD50E
:105280001E8854486F2F0CBF08230A23002184F87E
:1052900043106568A560002DA2BF216821F00401BC
:1052A00021600EB9002D4DD01546B6FBF3F103FB7E
:1052B0001167C75D05F8017D3746BB420E46F4D93C
:1052C000082B0BD12368DE0708D523696168994252
:1052D000DEBF302305F8013C05F1FF35521B22618A
:1052E000CDF800A04B4603AA21464046FFF7E2FE58
:1052F00001304CD14FF0FF3004B0BDE8F0873548A5
:1053000081F845702968236851F8046B29601D06EF
:1053100014D5DF0744BF43F0200323601EB9236880
:1053200023F0200323601023B0E7236843F0200319
:1053300023607823284884F84530E3E7590648BFBE
:10534000B6B2E6E71546BBE72B6826686169181D0B
:10535000286035061B6801D5196002E07006FBD590
:105360001980002323611546BAE72B681A1D2A60AD
:105370001D68626800212846FAF7E2FF08B1401B69
:10538000606063682361002384F84330A8E72369E1
:105390002A4649464046D0470130ABD023689B0798
:1053A00013D4E068039B9842B8BF1846A4E70123D2
:1053B000324649464046D04701309BD00135E3682C
:1053C00003995B1AAB42F2DCEBE7002504F1190606
:1053D000F5E700BF06840108178401080FB40A4BE3
:1053E00013B51C6824B1A36913B9204601F000F974
:1053F00005AB049AA1680193204601F0AFFE02B00C
:10540000BDE8104004B070474C00002070B50E4657
:10541000054618B183690BB901F0EAF8AB69AC68CD
:1054200013B9284601F0E4F82C4B9C4220D16C685B
:10543000636EDB0705D4A389980502D4A06D01F043
:105440007AF9A38919071DD52369DBB1013EA36849
:1054500016F8011F013BA36039BB002B38DA224646
:105460000A21284600F070F8013011D00A2511E019
:105470001B4B9C4201D1AC68DAE71A4B9C4208BF37
:10548000EC68D5E72146284600F0B0F80028DDD0CA
:105490004FF0FF35636EDA0705D4A3899B0502D46C
:1054A000A06D01F049F9284670BD002B04DAA2690D
:1054B0009A4206DC0A2904D023685A1C226019701B
:1054C000C5E72246284600F03FF80130BFD1DFE7AC
:1054D00023680A255A1C22601D70DBE7FC84010842
:1054E0001C850108DC840108024B01461868FFF79F
:1054F0008DBF00BF4C00002010B57AB103460139C2
:10550000841813F8010B11F8012F904201D1A34226
:1055100001D1801A10BD0028F3D1FAE71046F9E74F
:1055200010B50139034632B111F8014F03F8014BB0
:10553000013A002CF7D11A440021934200D110BD4A
:1055400003F8011BF9E70000F8B50E4614460546BE
:1055500018B183690BB901F04BF8214B9C422BD158
:105560006C68A369A360A3891A072FD523696BB35D
:1055700023692068C01A6369F6B28342374604DCA7
:105580002146284600F0A0FF30BBA368013BA36082
:1055900023685A1C22601E7063690130834204D064
:1055A000A389DB0706D50A2E04D12146284600F040
:1055B0008BFF88B93846F8BD0A4B9C4201D1AC68D4
:1055C000CFE7094B9C4208BFEC68CAE72146284652
:1055D00000F00CF80028CBD04FF0FF37EAE700BF0F
:1055E000FC8401081C850108DC840108324B70B57D
:1055F0001D6806460C4625B1AB6913B9284600F074
:10560000F7FF2E4B9C420FD16C68A389B4F90C2094
:1056100019072CD4DD0611D40923336042F040036E
:10562000A3814FF0FF303EE0254B9C4201D1AC6896
:10563000EBE7244B9C4208BFEC68E6E7580712D51D
:10564000616B41B104F14403994202D0304601F04C
:105650007BFC00236363A38923F02403A38100233D
:10566000636023692360A38943F00803A38123694E
:105670004BB9A38903F42073B3F5007F03D021460F
:10568000304601F07FF8A089B4F90C2010F0010336
:105690000AD00023A36063695B42A361236943B915
:1056A00010F08000BAD170BD810758BF6369A36054
:1056B000F4E70020F7E700BF4C000020FC8401085D
:1056C0001C850108DC8401082DE9F74F03690C698A
:1056D000A3420746C0F28180013C01F1140800F1A9
:1056E000140505EB8403019358F8243055F8242061
:1056F00001339A424FEA840B08EB8409B2FBF3F6BC
:1057000031D34FF0000E4046AC46F24650F8042B21
:1057100093B206FB03E34FEA134E9BB2AAEB0303DB
:10572000DCF800A0120C13FA8AF306FB02E20093E5
:10573000009B4FEA124E92B2C2EB1A4202EB234296
:10574000BDF80030814543EA02434CF8043B4FEA80
:10575000224ADBD255F80B302BB9019B043B9D420A
:105760001A462ED33C61384601F0D6FA002824DBD5
:10577000013628464FF0000C58F8042BD0F800E012
:1057800093B2ACEB0303120C13FA8EF3C2EB1E427E
:1057900002EB23429BB243EA0243C14540F8043B7B
:1057A0004FEA224CE8D255F8242005EB840322B9B5
:1057B000043B9D421A460AD33C61304603B0BDE823
:1057C000F08F1268043B002ACCD1013CC7E7126875
:1057D000043B002AF0D1013CEBE70020EEE700009B
:1057E0002DE9F04F2DED048B57EC106B93B0456A0B
:1057F000DDF88080069110EE10AA044609920C9301
:10580000BB4675B9102000F0FDFF0246606220B96A
:10581000A74BEA21A74801F037FEC0E90155056012
:10582000C560636A196851B15A684A6001239340A0
:105830008B60204601F02EF8636A00221A603B1E3E
:10584000AABF002323F0004BC8F800309A4BBCBF1E
:105850000122C8F8002033EA0B031BD10C9A42F254
:105860000F731360CBF31303334300F09285219B36
:1058700063B9924B22E0924B01930833219A136053
:10588000019813B0BDEC048BBDE8F08F8B4B0193F6
:105890000333F3E70022002350465946FBF7C4F9CF
:1058A0004BEC19AB804658B10C9A01231360219B35
:1058B000002B00F06B8583481860431E0193DFE7DF
:1058C0004BEC10AB10AA11A9204601F0CBFACBF398
:1058D0000A5508EE100A002D00F0848019EE903A67
:1058E000C3F3130343F07F57564647F44017A5F21E
:1058F000FF35CDF83880744B002230463946FAF730
:1059000073FD65A3D3E90023FAF726FF64A3D3E967
:105910000023FAF76BFD064628460F46FAF7B2FE5B
:1059200061A3D3E90023FAF717FF02460B4630467E
:105930003946FAF75BFD06460F46FBF7BDF9002234
:105940000090002330463946FBF778F950B10098B3
:10595000FAF798FE32463B46FBF766F910B9009B12
:10596000013B0093009B162B5AD8009A574B03EB30
:10597000C203D3E9002351EC190BFBF75FF90028B0
:1059800050D0009B013B009300230B93109B5D1BA9
:105990006B1E059345BFC5F101030493002300234B
:1059A0004CBF05930493009B002B3DDB059B009AA5
:1059B0000A921344059300230793069B092B00F2D8
:1059C0008980052BC4BF043B0693069BA3F1020309
:1059D000CCBF00250125032B00F28780DFE803F010
:1059E0002D3A3859DDE910531D4405F23243202B7E
:1059F000C1BFC3F1400305F212400BFA03F326FACC
:105A000000F0DABFC3F1200306FA03F01843FAF7F7
:105A100029FE01230646A1F1F877013D0E936AE7BE
:105A20000123B2E70B90B1E7049B009A9B1A049301
:105A30005342079300230A93BFE700230893099B6F
:105A4000002B55DC0123CDE902331A4609920CE004
:105A50000123F3E70023099A0893009B1344029360
:105A60000133012B0393B8BF0123606A0022426017
:105A7000042202F114069E4241683DD9204600F0FE
:105A8000C9FE019000283BD1114B02464FF4D5715D
:105A9000C0E60123DFE700BF61436F63A787D23F02
:105AA000B3C8608B288AC63FFB799F501344D33F0D
:105AB000358401084C8401080000F07F318401081E
:105AC00028840108058401080000F83FE8850108E2
:105AD000CA84010801250023069308954FF0FF337F
